:1000000012C021C020C01FC01EC01DC01CC01BC00C
:10001000C7C0E1C018C017C016C015C014C013C0B7
:1000200012C0E6C010C011241FBECFE5D4E0DEBF71
:10003000CDBF20E0A0E6B0E001C01D92A737B20717
:10004000E1F702D001C1DCCF11BA88E084BBAB9AE2
:100050008FE087BB1FBC82E08EBD94E099BF83BF59
:1000600099B7916099BF93E092B911B880B985E4CE
:1000700086BF7894812C912CC12CD12CE12CF12CB1
:1000800000E010E0C0E0D0E0A0E0B0E060E070E0B0
:10009000A12CB12C80E0E1E6F0E022E001C0892F44
:1000A00090B3892780FF11C090FF07C0ACB4BDB4E6
:1000B00010927600C09A23BF08C04CB55DB54A19AE
:1000C0005B0951834083C09A23BF81FF0DC091FF1C
:1000D00003C06CB57DB508C04CB55DB5461B570B6C
:1000E00053834283C09A23BF82FF0DC092FF03C097
:1000F000ACB5BDB508C04CB55DB54A1B5B0B5583AF
:100100004483C09A23BF83FF0DC093FF03C0CCB5C7
:10011000DDB508C04CB55DB54C1B5D0B5783468300
:10012000C09A23BF84FF0DC094FF03C00CB51DB55A
:1001300008C04CB55DB5401B510B51874087C09A34
:1001400023BF85FF0DC095FF03C0ECB4FDB408C00C
:100150004CB55DB54E195F0953874287C09A23BFDE
:1001600086FF0DC096FF03C0CCB4DDB408C04CB50B
:100170005DB54C195D0955874487C09A23BF882314
:100180000CF08DCF99231CF48CB49DB488CF4CB562
:100190005DB54819590957874687C09A23BF7FCF55
:1001A0001F920F920FB60F9211248F9380917600B9
:1001B000811108C081E180937500AB9881E0809344
:1001C000760003C010927500AB9A8F910F900FBE0E
:1001D0000F901F9018951F920F920FB60F92112437
:1001E000C09813BE12BE0F900FBE0F901F901895AF
:1001F0001F920F920FB60F9211248F93EF93FF93DC
:1002000081B1887F883A19F0883B41F012C081E0C3
:10021000809360008091610083B90BC0E091600021
:1002200081E08E0F80936000F0E0EF59FF4F8081F6
:1002300083B986B7806886BFFF91EF918F910F9049
:0C0240000FBE0F901F901895F894FFCF90
:00000001FF
