S011000049435F4155585F56322E7372656353
S113000012C021C020C01FC01EC01DC01CC01BC008
S11300107EC18CC118C017C016C015C014C013C04F
S113002012C095C110C011241FBECFE5D4E0DEBFBD
S1130030CDBF20E0A0E6B0E001C01D92A837B20712
S1130040E1F702D0C1C1DCCF11BA88E084BB8FE0F4
S113005087BB81E08EBD84E089BF43E0E1E6F0E048
S11300605FEF8899FECF889BFECF8CB59DB59093AA
S11300706A0080936900C09A43BF8899FECFC09AF2
S113008043BF8CB59DB52091690030916A00821BF5
S1130090930B589F9001599F300D11242851344ED1
S11300A0369527953695279536952795A5ECB0E294
S11300B07FD1929582958F7089279F70892780833D
S11300C08CB59DB590936A00809369008999FECFA1
S11300D0C09A43BF8CB59DB52091690030916A00E8
S11300E0821B930B589F9001599F300D1124285166
S11300F0344E369527953695279536952795A5EC54
S1130100B0E256D1929582958F7089279F70892786
S113011081838CB59DB590936A00809369008A9918
S1130120FECFC09A43BF8CB59DB520916900309134
S11301306A00821B930B589F9001599F300D112424
S11301402851344E3695279536952795369527951B
S1130150A5ECB0E22DD1929582958F7089279F707E
S1130160892782838CB59DB590936A00809369003A
S11301708B99FECFC09A43BF8CB59DB52091690081
S113018030916A00821B930B589F9001599F300D48
S113019011242851344E3695279536952795369552
S11301A02795A5ECB0E204D1929582958F708927AA
S11301B09F70892783838CB59DB590936A00809343
S11301C069008C99FECFC09A43BF8CB59DB5209130
S11301D0690030916A00821B930B589F9001599FCC
S11301E0300D11242851344E369527953695279590
S11301F036952795A5ECB0E2DBD0929582958F7069
S113020089279F70892784838CB59DB590936A0054
S1130210809369008D99FECFC09A43BF8CB59DB57C
S11302202091690030916A00821B930B589F9001C2
S1130230599F300D11242851344E36952795369503
S1130240279536952795A5ECB0E2B2D09295829584
S11302508F7089279F70892785838CB59DB590936E
S11302606A00809369008E99FECFC09A43BF8CB513
S11302709DB52091690030916A00821B930B589FB1
S11302809001599F300D11242851344E36952795ED
S11302903695279536952795A5ECB0E289D09295A9
S11302A082958F7089279F70892786838CB59DB529
S11302B090936A00809369008F99FECFC09A43BFE0
S11302C08CB59DB52091690030916A00821B930B17
S11302D0589F9001599F300D11242851344E369562
S11302E027953695279536952795A5ECB0E260D0ED
S11302F0929582958F7089279F708927878381388B
S113030010F0AB9A01C0AB981DBC1CBCAACE1F92C6
S11303100F920FB60F9211248F9381E08093770090
S11303208F910F900FBE0F901F9018951F920F92F0
S11303300FB60F9211248F9388B38E6F88BB13BEB0
S113034012BE8F910F900FBE0F901F9018951F92A1
S11303500F920FB60F9211248F93EF93FF9381B1F5
S1130360847F883849F018F4803831F019C0883A0D
S113037031F0883B21F014C083B180936000E09198
S1130380600081E08E0F80936000F0E0E559FF4F3C
S1130390808183B9809160008C3010F010926000ED
S11303A0FF91EF918F910F900FBE0F901F901895B2
S11303B0A29FB001B39FC001A39F01D0B29F700D53
S10F03C0811D1124911D0895F894FFCFB5
S9030000FC
